:020000040800F2
:1000000000800020712D0008450700084707000800
:10001000490700084B0700084D07000800000000D2
:100020000000000000000000000000004F07000872
:10003000510700080000000053070008550700089A
:10004000C12D0008C12D0008C12D0008C12D0008D8
:10005000C12D0008C12D0008C12D0008C12D0008C8
:10006000C12D0008C12D0008C12D0008610700083E
:10007000710700088107000891070008C12D0008DA
:10008000C12D000800000000C12D0008C12D00088E
:10009000C12D0008C12D0008C12D0008C12D000888
:1000A000C12D0008C12D0008C12D0008C12D000878
:1000B000C12D0008C12D0008C12D0008C12D000868
:1000C000C12D0008C12D0008C12D0008C12D000858
:1000D000C12D0008A1070008C12D0008C12D00088E
:1000E000C12D0008C12D0008C12D0008C12D000838
:1000F000C12D0008C12D0008C12D0008000000001E
:1001000000000000C12D000800000000C12D000803
:10011000C12D000800000000C12D0008C12D0008FD
:10012000C12D0008C12D0008C12D0008C12D0008F7
:10013000C12D00080000000000000000C12D0008D3
:10014000C12D0008C12D00080000000000000000C3
:10015000000000000000000000000000000000009F
:10016000000000000000000000000000C12D000899
:10017000C12D000800000000000000000000000089
:1001800000000000C12D0008000000000000000079
:10019000000000000000000000000000000000005F
:1001A0000000000000000000C12D0008B107000899
:1001B000C12D0008C12D0008C12D0008000000005D
:1001C00000000000C12D0008000000000000000039
:0801D000C12D0008C12D00083B
:1001D80010B5054C237833B9044B13B10448AFF379
:1001E80000800123237010BD0C00002000000000D7
:1001F8001C2E000808B5034B1BB103490348AFF395
:10020800008008BD00000000100000201C2E00081F
:1002180053B94AB9002908BF00281CBF4FF0FF3165
:100228004FF0FF3000F072B9ADF1080C6DE904CE63
:1002380000F006F8DDF804E0DDE9022304B07047B9
:100248002DE9F047089E04468846002B4BD18A4288
:10025800154667D9B2FA82F24AB1C2F1200701FA0B
:1002680002F320FA07F7954047EA030894404FEA5B
:10027800154E230CB8FBFEF71FFA85FC0EFB1788FA
:1002880043EA084307FB0CF1994209D9EB1807F137
:10029800FF3080F01B81994240F21881023F2B44C5
:1002A8005B1AA4B2B3FBFEF00EFB103344EA03441E
:1002B80000FB0CFCA44509D92C1900F1FF3380F090
:1002C8000781A44540F2048102382C4440EA0740E3
:1002D800A4EB0C0400271EB1D4400023C6E9004358
:1002E8003946BDE8F0878B4209D9002E00F0EB8033
:1002F8000027C6E9000138463946BDE8F087B3FA59
:1003080083F7002F47D18B4202D3824200F2FA8052
:10031800841A61EB030301209846002EE0D0C6E959
:100328000048DDE702B9FFDEB2FA82F2002A40F0A7
:100338008F80491B4FEA154E1FFA85F80127B1FB3C
:10034800FEFC230C0EFB1C1143EA014308FB0CF1D5
:10035800994207D9EB180CF1FF3002D2994200F20A
:10036800CD808446591AA3B2B1FBFEF00EFB1014DF
:1003780043EA044408FB00F8A04507D92C1900F10A
:10038800FF3302D2A04500F2B6801846A4EB080459
:1003980040EA0C409FE7C7F1200CBB4022FA0CFE54
:1003A8004EEA030E01FA07F420FA0CF521FA0CF3D1
:1003B8004FEA1E482543B3FBF8F92C0C08FB193308
:1003C8001FFA8EFA44EA034309FB0AF49C4202FA34
:1003D80007F200FA07F10BD91EEB030309F1FF300E
:1003E80080F087809C4240F28480A9F1020973441E
:1003F8001B1BADB2B3FBF8F008FB103345EA03440E
:1004080000FB0AFAA24508D91EEB040400F1FF33E9
:100418006BD2A24569D90238744440EA0940A0FB6E
:100428000289A4EB0A044C45C2464B4654D351D02A
:10043800002E69D0B1EB0A0564EB030404FA0CFC46
:10044800FD40FC404CEA0505C6E90054002747E793
:10045800C2F1200320FA03F7954001FA02F021FACD
:1004680003F34FEA154E3843010CB3FBFEF71FFAAE
:1004780085F80EFB173341EA034107FB08F38B426B
:1004880004FA02F407D9691807F1FF3C2FD28B420E
:100498002DD9023F2944CB1A81B2B3FBFEF00EFBE3
:1004A800103341EA034100FB08F38B4207D969186E
:1004B80000F1FF3C17D28B4215D902382944C91ADA
:1004C80040EA07473BE73746304609E70746E7E68D
:1004D8001846FBE64145ABD2B8EB020A69EB0E02BF
:1004E80001381346A4E76046E9E7184695E76746EA
:1004F800D1E781467CE702382C4447E7ACF1020C8F
:100508002B442FE7384608E73746E9E6704700BF2F
:10051800094A1378DBB20949C85413780133DBB2AE
:1005280013701378DBB2192B02D9134600221A7004
:10053800034B00221A807047390000203C0000203D
:1005480036000020024A138801339BB2138070479B
:100558003600002000B583B01A4B9A6C42F00402B2
:100568009A649A6C02F004020092009A9A6C42F023
:1005780001029A649B6C03F001030193019B002222
:1005880011460B2000F04AFB0B2000F07BFB0022F9
:1005980011460C2000F042FB0C2000F073FB0022F7
:1005A80011460D2000F03AFB0D2000F06BFB0022F5
:1005B80011460E2000F032FB0E2000F063FB03B062
:1005C8005DF804FB0010024010B58AB000240594C1
:1005D8000694079408940994204BDA6C42F00402BC
:1005E800DA64DA6C02F004020192019ADA6C42F0E1
:1005F8002002DA64DA6C02F020020292029ADA6CC3
:1006080042F00102DA64DA6C02F001020392039A02
:10061800DA6C42F00202DA64DB6C03F00203049342
:10062800049B224620214FF0904000F067FD4FF4D4
:10063800005305930A4B0693079405A9094800F04F
:100648008DFC20230593012306930794089405A99C
:100658004FF0904000F082FC0AB010BD001002403C
:10066800000011100008004830B5A5B0382200215C
:1006780016A802F0C7FB0024119412941394149442
:10068800159444222146684602F0BCFB204600F03F
:100698003BFD022316934FF48072199240221A925E
:1006A8001D931E9304251F95552220922193229372
:1006B800239316A800F0E2FD0F231193032312934E
:1006C800139414941594294611A801F08FF8212346
:1006D800009301940594684601F0B0F925B030BD47
:1006E80008B500F067FAFFF7BFFFFFF76DFFFFF7E8
:1006F80031FF00F0CFF800F0FFF800F06BF8FEE7EC
:100708007047000000B583B00B4B1A6E42F001022F
:100718001A661A6E02F001020092009A9A6D42F06F
:1007280080529A659B6D03F080530193019B00F002
:1007380071FD03B05DF804FB001002407047FEE74E
:10074800FEE7FEE7FEE770477047704708B500F020
:1007580041FAFFF7F7FE08BD08B5024800F09BFB19
:1007680008BD00BF9001002008B5024800F093FBC7
:1007780008BD00BFDC02002008B5024800F08BFB72
:1007880008BD00BF7C02002008B5024800F083FBCA
:1007980008BD00BF3001002008B5024801F07AFE0C
:1007A80008BD00BFF001002008B5024801F072FE44
:1007B80008BD00BFA4000020054BD3F8882042F4F0
:1007C8007002C3F888204FF000629A60704700BF3B
:1007D80000ED00E010B594B0002410941194129428
:1007E80013940D940E940F9434222146684602F017
:1007F80009FB1B481B4B0360446084604FF6FF7382
:10080800C36004614461846101F018FBD8B914A97C
:100818004FF4805341F8103D114801F04BFBA8B943
:1008280000230D930E930F930DA90D4801F0C4FBFF
:1008380078B9002307930B936946094801F006FC31
:1008480050B914B010BDFFF75BFFE0E7FFF758FFA2
:10085800E6E7FFF755FFECE7FFF752FFF1E700BFC8
:1008680058000020002C01400268094B9A4200D031
:10087800704782B003F564431A6E42F400621A6648
:100888001B6E03F400630193019B02B0704700BF25
:10089800002C014008B51648164B03604FF4E133AD
:1008A800436000238360C36003610C22426183615B
:1008B8000362836202F07FF970B900210C4802F0EC
:1008C80009FA60B900210A4802F029FA50B9084823
:1008D80002F0E1F948B908BDFFF712FFEDE7FFF7AD
:1008E8000FFFEFE7FFF70CFFF1E7FFF709FFF2E76C
:1008F800A40000200080004008B51748174B03608B
:100908004FF41653436000238360C36003610C22D5
:1009180042618361C36103624362836202F04BF9FF
:1009280070B900210C4802F0D5F960B900210A48D5
:1009380002F0F5F950B9084802F0ADF948B908BD18
:10094800FFF7DEFEEDE7FFF7DBFEEFE7FFF7D8FE88
:10095800F1E7FFF7D5FEF2E7F0010020003801408B
:100968002DE9F0418AB004460023059306930793C6
:10097800089309930368664A934205D0654A9342EF
:1009880058D00AB0BDE8F081634BDA6D42F001023D
:10099800DA65DA6D02F001020192019ADA6C42F02E
:1009A8000102DA64DB6C03F001030293029B0C235F
:1009B800059302220692099305A94FF0904000F092
:1009C800CDFA5648564B03602223436000238360C8
:1009D800C36080220261436183612022C261036295
:1009E80000F0ACF900BB4D4BA3679C624D484E4BE1
:1009F800036023234360102383600023C3608022A5
:100A0800026143618361C361036200F097F970B9C1
:100A1800444B63679C62002211465B2000F0FEF89D
:100A28005B2000F02FF9ACE7FFF76AFEDBE7FFF782
:100A380067FEEDE7384B1A6E42F480421A661A6E6A
:100A480002F480420392039ADA6C42F00402DA64F8
:100A5800DB6C03F004030493049B10230593022525
:100A680006954FF00708CDF82480304F05A9384681
:100A780000F074FA202605960695012307930025B1
:100A88000895CDF8248005A9384600F067FA28486B
:100A9800284B0360182343608560C5608023036189
:100AA80045618561C661056200F048F950BB204B7D
:100AB800A3679C622048214B0360192343601023DD
:100AC80083600023C3608022026143618361C36144
:100AD800036200F033F9C0B9174B63679C620022C8
:100AE8001146252000F09AF8252000F0CBF822685E
:100AF800084B9A427FF445AF01221149114801F091
:100B080015FB3EE7FFF7FCFDD1E7FFF7F9FDE3E74B
:100B1800008000400038014000100240DC02002044
:100B28001C0002407C0200203000024000080048FF
:100B380090010020080002403001002044000240DB
:100B48003C030020F001002008B50268044B9A42DB
:100B580000D008BD034B1878FFF7DAFCF9E700BFAF
:100B6800003801403C030020104B1B680BB90120E2
:100B7800704710B504464FF47A70B0FBF3F30C4A93
:100B88001068B0FBF3F000F08BF868B90F2C01D9AE
:100B980001200AE0002221464FF0FF3000F03EF825
:100BA800024B5C60002000E0012010BD0400002022
:100BB8000000002010B5032000F01EF80020FFF709
:100BC800D3FF10B10124204610BD0446FFF79AFD5B
:100BD800F9E70000034A1368034909680B441360E6
:100BE800704700BF4003002004000020014B186834
:100BF800704700BF40030020074AD36823F4E0632E
:100C08001B041B0C000200F4E060184340F0BF60B6
:100C180040F40030D060704700ED00E030B4174B6E
:100C2800DB68C3F30223C3F10704042C28BF0424A0
:100C38001D1D062D18D9033B4FF0FF3505FA04F4A6
:100C480021EA0401994005FA03F322EA0303194350
:100C580000280BDB0901C9B200F1604000F56140D2
:100C680080F8001330BC70470023E5E700F00F0060
:100C78000901C9B2024B1954F4E700BF00ED00E0C6
:100C880014ED00E0002807DB00F01F0240090123F3
:100C98009340024A42F82030704700BF00E100E06C
:100CA8000138B0F1807F0AD2064B5860064AF0211D
:100CB80082F823100020986007221A6070470120EC
:100CC800704700BF10E000E000ED00E003680C4A48
:100CD800934213D90B49DBB2083B0B4AA2FB03230F
:100CE800426C22F003020A448264084AC264C3F3D5
:100CF8000413012202FA03F3036570470449EAE783
:100D08000704024020080240CDCCCCCC8008024029
:100D1800000802400379074A1A4492004265064ACD
:100D28008265013B03F01F03012202FA03F3C36546
:100D3800704700BF3F8200104009024000285CD085
:100D480010B5044602682E4B9A423ED82D4B1344E8
:100D58002D4AA2FB03231B099B0043642B4B03640E
:100D6800022384F8253021680A6822F4FF4222F021
:100D78007002A368E0680343206903436069034382
:100D8800A0690343E0690343206A034313430B60EC
:100D98002046FFF79BFFA368B3F5804F20D0A36CD4
:100DA80022791A60E36C226D5A606368013B032B59
:100DB80019D900236365A365E3650020E063012377
:100DC80084F8253084F8240010BD114B13440E4AD2
:100DD800A2FB03231B099B0043640E4B0364BFE77C
:100DE80000236360DBE72046FFF794FF636D002272
:100DF8001A60A36DE26D5A60DFE70120704700BFFB
:100E080007040240F8FFFDBFCDCCCCCC0000024067
:100E1800F8FBFDBF0004024008B590F82530DBB2AE
:100E2800022B09D00423C363012380F82530002254
:100E380080F82420184608BD0268136823F00E03C2
:100E480013600268136823F001031360826C13684F
:100E580023F480731360436C03F01F02016C0123B9
:100E680093404B60C36C026D5A60436D33B11A688E
:100E780022F480721A60836DC26D5A60012380F873
:100E88002530002380F82430836B13B19847002065
:100E9800D1E70020CFE738B5036C196804682568E6
:100EA800436C03F01F0304229A400A4215D015F040
:100EB800040F12D0236813F0200F03D1236823F006
:100EC80004032360436C03F01F02016C0423934066
:100ED8004B60036B03B1984738BD02229A400A421F
:100EE8001CD015F0020F19D0236813F0200F06D17B
:100EF800236823F00A032360012380F82530436C1C
:100F080003F01F02016C022393404B60002380F81A
:100F18002430C36A002BDFD09847DDE7082202FAA5
:100F280003F30B42D8D015F0080FD5D0236823F06F
:100F38000E032360436C03F01F03016C012202FAC5
:100F480003F34B60C26380F82520002380F8243027
:100F5800436B002BC0D09847BEE70000F0B583B0C4
:100F6800002336E0052400E00024B4403C43023569
:100F78005E4E46F825405E4C2568D44304EA0506D3
:100F88004F6817F4803F01D042EA0506584D2E609D
:100F98006D6804EA05064F6817F4003F01D042EA7D
:100FA8000506534D6E60AD6804EA05064F6817F4F0
:100FB800801F01D042EA05064D4DAE60ED682C4019
:100FC8004E6816F4001F01D042EA0504484AD4606E
:100FD80001330A6832FA03F400F0868001249C4049
:100FE8002240F5D04D686E1E012E03D9112D01D077
:100FF800122D12D186685F000325BD4026EA05063A
:10100800CD68BD4035438560466826EA04064D68CC
:10101800C5F300149C4034434460C5685F00032452
:10102800BC40E44325408E68BE402E43C6604D68F0
:10103800022D01D0122D13D1DE08083650F826E013
:1010480003F007054FEA850C0F2505FA0CF52EEA83
:10105800050E0D6905FA0CF545EA0E0540F826500F
:1010680005682C404D6805F00305BD402C4304601D
:101078004C6814F0805FABD01E4C256E45F001051E
:101088002566246E04F001040194019C9D08AE1CA1
:10109800164C54F8267003F00304A6000F24B4403D
:1010A80027EA0407B0F1904F3FF45EAF124CA0421C
:1010B80012D004F58064A04210D004F58064A042E8
:1010C8000ED004F58064A0420CD004F58064A042E0
:1010D8003FF448AF062448E7012446E7022444E7E2
:1010E800032442E7042440E703B0F0BD00000140B8
:1010F8000004014000100240000400480AB981625F
:101108007047816170470000002838D13E4B1B684A
:1011180003F4C063B3F5806F08D03B4AD2F880303F
:1011280023F48073C2F8803000207047364AD2F822
:10113800803023F48073C2F88030136823F4C063CE
:1011480043F400731360314B1A68322303FB02F334
:101158002F4AA2FB03239B0C013300E0013B2A4AE0
:10116800526912F4806F01D0002BF7D1264B5B69CE
:1011780013F4806F01D10020704703207047B0F549
:10118800007F08D0204A136823F4C06343F48063C7
:101198001360002070471C4B1B6803F4C063B3F551
:1011A800806F08D0184AD2F8803043F48073C2F8B0
:1011B800803000207047144AD2F8803043F480739E
:1011C800C2F88030136823F4C06343F400731360DB
:1011D8000E4B1A68322303FB02F30D4AA2FB0323CA
:1011E8009B0C013300E0013B074A526912F4806FFF
:1011F80001D0002BF7D1044B5B6913F4806F01D148
:101208000020704703207047007000400000002055
:1012180083DE1B43024A936843F48043936070471C
:1012280000700040124AD36803F00303D068C0F38B
:1012380003100130032B11D00E4BB3FBF0F30C4A13
:10124800D068C0F3062000FB03F0094BDB68C3F34A
:10125800416301335B00B0FBF3F07047064BB3FB0F
:10126800F0F3D068C0F3062000FB03F0EDE700BF01
:10127800001002400024F40000366E01002800F03F
:101288005E8270B582B00446036813F0010F37D050
:10129800B44A936803F00C03D26802F003020C2BE3
:1012A80023D0082B23D06368B3F5803F4ED0B3F525
:1012B800A02F51D0AB4B1A6822F480321A601A68FA
:1012C80022F480221A606368002B52D0FFF78EFC4C
:1012D8000546A44B1B6813F4003F11D1FFF786FCA9
:1012E800401B6428F5D9032032E2032AD9D19D4B4B
:1012F8001B6813F4003F03D06368002B00F02182C1
:10130800236813F0020F5DD0964A936803F00C032C
:10131800D26802F003020C2B3AD0042B3AD0E368CF
:10132800002B75D08F4A136843F480731360FFF75E
:101338005DFC05468B4B1B6813F4806F5FD1FFF78C
:1013480055FC401B0228F5D9032001E2854A1368A1
:1013580043F480331360B6E703F18043A3F53C33CD
:101368001A6842F480221A601A6842F480321A60BD
:10137800A9E7FFF73BFC05467A4B1B6813F4003FCF
:10138800BED0FFF733FC401B6428F5D90320DFE10A
:10139800022AC2D1734B1B6813F4806F03D0E36831
:1013A800002B00F0D0816F4A536823F0FE43216977
:1013B80043EA016353606C4B1868FFF7D5FB0028BC
:1013C80040F0C381236813F0080F4CD063699BB3C6
:1013D800644AD2F8943043F00103C2F89430FFF71E
:1013E80005FC05465F4BD3F8943013F0020F3AD151
:1013F800FFF7FCFB401B0228F4D90320A8E1594A57
:10140800536823F0FE43216943EA01635360D9E737
:10141800544A136823F480731360FFF7E7FB05460B
:10142800504B1B6813F4806FCCD0FFF7DFFB401BD9
:101438000228F5D903208BE14A4AD2F8943023F0E8
:101448000103C2F89430FFF7D1FB0546454BD3F8AA
:10145800943013F0020F06D0FFF7C8FB401B022898
:10146800F4D9032074E1236813F0040F00F081809D
:101478003C4B9B6D13F0805F36D13A4B9A6D42F02E
:1014880080529A659B6D03F080530193019B01255F
:10149800364B1B6813F4807F28D0A368012B39D002
:1014A800052B3FD02F4BD3F8902022F00102C3F830
:1014B8009020D3F8902022F00402C3F89020A3686B
:1014C800002B3DD0FFF792FB0646264BD3F8903011
:1014D80013F0020F4CD1FFF789FB801B41F28833D0
:1014E8009842F2D9032033E10025D1E71F4A136857
:1014F80043F480731360FFF779FB06461B4B1B68A8
:1015080013F4807FC9D1FFF771FB801B0228F5D93E
:1015180003201DE1134AD2F8903043F00103C2F8CA
:101528009030CCE70F4BD3F8902042F00402C3F878
:101538009020D3F8902042F00102C3F89020BEE733
:10154800FFF754FB0646074BD3F8903013F0020F11
:101558000ED0FFF74BFB801B41F288339842F2D93B
:101568000320F5E000100240080000200070004051
:10157800E5B9236813F0200F35D0A369E3B1774AA2
:10158800D2F8983043F00103C2F89830FFF72EFBE9
:101598000546724BD3F8983013F0020F23D1FFF7AA
:1015A80025FB401B0228F4D90320D1E06B4A936D38
:1015B80023F080539365DCE7684AD2F8983023F02B
:1015C8000103C2F89830FFF711FB0546634BD3F8C7
:1015D800983013F0020F06D0FFF708FB401B0228D3
:1015E800F4D90320B4E0E369002B00F0B0805B4A33
:1015F800926802F00C020C2A69D0022B1DD0574BBE
:101608001A6822F080721A60DA6822F00302DA603F
:10161800DA6822F0887222F48032DA60FFF7E6FA9C
:1016280004464E4B1B6813F0007F4ED0FFF7DEFADE
:10163800001B0228F5D903208AE0484A136823F0E2
:1016480080731360FFF7D2FA0546444B1B6813F00A
:10165800007F06D0FFF7CAFA401B0228F5D90320FD
:1016680076E03E4AD3683E491940236A606A0138E9
:1016780043EA0013A06A43EA0023206B40080138BC
:1016880043EA4053606B4008013843EA4063E06A2C
:1016980043EAC0630B43D360136843F0807313605D
:1016A800D36843F08073D360FFF7A0FA04462B4B4E
:1016B8001B6813F0007F06D1FFF798FA001B022879
:1016C800F5D9032044E0002042E0002040E0012B4F
:1016D80040D0224BDB6803F00301226A914201D01B
:1016E800012035E003F0F002616A0139B2EB011F15
:1016F80001D001202CE003F4FE42A16AB2EB012FD5
:1017080001D0012024E003F07842E16AB2EBC16F16
:1017180001D001201CE003F4C001226B5208013AF9
:10172800B1EB425F01D0012012E003F0C063626BAD
:101738005208013AB3EB426F0ED0012008E00120B5
:101748007047012004E0012002E0012000E00020B1
:1017580002B070BD0120FBE70020F9E7001002404D
:101768000C809F011E4B9B6803F00C03042B33D0A5
:101778001B4B9B6803F00C03082B2FD0184B9B685E
:1017880003F00C030C2B01D000207047144BDA68CF
:1017980002F00302DB68C3F303130133032A11D1F8
:1017A8001048B0FBF3F30E4AD068C0F3062000FBE4
:1017B80003F00B4BDB68C3F3416301335B00B0FB01
:1017C800F3F070470848B0FBF3F3054AD068C0F35C
:1017D800062000FB03F0ECE7034870470148704718
:1017E8000010024000366E010024F400002800F0CA
:1017F800EA80F8B50446764B1B6803F00F038B426A
:101808000CD2734A136823F00F030B431360136859
:1018180003F00F038B4201D00120B3E00D4623688B
:1018280013F0010F61D06368032B15D0022B33D05E
:10183800684B1B6813F4806F00F0C780FFF792FFB6
:10184800654B984235D9634A936823F0F00343F017
:101858008003936080272DE05E4B1B6813F0007FA8
:1018680001D101208EE0FFF7DDFC5B4B98421AD9CD
:10187800584B9B6813F0F00F05D0236813F0020F44
:1018880013D0A3689BB9534A936823F0F00343F03D
:101898008003936080270DE04E4B1B6813F4003FD4
:1018A800CCD101206EE0002704E0002702E00027E9
:1018B80000E00027474A936823F0030361680B435D
:1018C8009360FFF793F90646424B9B6803F00C03BD
:1018D8006268B3EB820F09D0FFF788F9801B41F2E9
:1018E80088339842F0D903204CE00027236813F08E
:1018F800020F48D013F0040F04D0364A936843F41B
:10190800E0639360236813F0080F06D0314A9368A8
:1019180023F47C5343F4E06393602E4A936823F0E6
:10192800F003A1680B439360294B1B6803F00F0376
:10193800AB4230D8236813F0040F06D0254A9368C9
:1019480023F4E063E1680B439360236813F0080F06
:1019580007D0204A936823F46053216943EAC103FE
:101968009360FFF7FFFE1B4B9B68C3F303131B4AEF
:10197800D35C03F01F03D840194B1860194B186843
:10198800FFF7F2F8F8BD002FCED0124A936823F083
:10199800F0039360C8E70E4A136823F00F032B4344
:1019A8001360FFF723F90646094B1B6803F00F0382
:1019B800AB42BFD0FFF71AF9801B41F28833984237
:1019C800F2D90320DEE7012070470120DAE700BFE3
:1019D800002002400010024000B4C404342E000865
:1019E8000000002008000020014B1868704700BF65
:1019F8000000002008B5FFF7F7FF054B9B68C3F30D
:101A08000223044AD35C03F01F03D84008BD00BF7B
:101A180000100240442E000808B5FFF7E5FF054B0B
:101A28009B68C3F3C223044AD35C03F01F03D84066
:101A380008BD00BF00100240442E0008F0B583B076
:101A48000446036813F4002F69D0B34B9B6D13F061
:101A5800805F1ED1B04B9A6D42F080529A659B6DA3
:101A680003F080530193019B0126AC4A136843F4A9
:101A780080731360FFF7BAF80546A84B1B6813F488
:101A8800807F08D1FFF7B2F8401B0228F5D903255B
:101A980002E00026E9E7002545BB9F4BD3F89030CC
:101AA80013F4407315D0226C9A4212D09A4AD2F895
:101AB800903023F44073D2F8901041F48031C2F88A
:101AC8009010D2F8901021F48031C2F89010C2F82A
:101AD800903013F0010F10D145B98F4AD2F89030E9
:101AE80023F44073216C0B43C2F89030C6B18A4A84
:101AF800936D23F08053936512E0FFF777F807465C
:101B0800854BD3F8903013F0020FE5D1FFF76EF84C
:101B1800C01B41F288339842F2D90325DCE700253F
:101B2800236813F0010F08D07B4AD2F8883023F0DD
:101B3800030361680B43C2F88830236813F0020F6F
:101B480008D0754AD2F8883023F00C03A1680B43FB
:101B5800C2F88830236813F0040F08D06E4AD2F810
:101B6800883023F03003E1680B43C2F888302368DB
:101B780013F0080F08D0684AD2F8883023F0C00361
:101B880021690B43C2F88830236813F0200F08D06E
:101B9800614AD2F8883023F4406361690B43C2F884
:101BA8008830236813F0400F08D05B4AD2F8883099
:101BB80023F44053A1690B43C2F88830236813F01B
:101BC800800F08D0544AD2F8883023F44043E169A2
:101BD8000B43C2F88830236813F4807F08D04E4A3C
:101BE800D2F8883023F44033216A0B43C2F8883096
:101BF800236813F4007F08D0474AD2F8883023F4CA
:101C08004023616A0B43C2F88830236813F4806F5D
:101C18000CD0414AD2F8883023F44013A16A0B4310
:101C2800C2F88830A36AB3F5801F57D0236813F42D
:101C3800006F0CD0384AD2F8883023F44003E16AA8
:101C48000B43C2F88830E36AB3F5800F4BD02368A2
:101C580013F4805F0CD0304AD2F8883023F04073F8
:101C6800216B0B43C2F88830236BB3F1807F3FD0E0
:101C7800236813F4005F0CD0274AD2F8883023F089
:101C88004063616B0B43C2F88830636BB3F1006F3C
:101C980033D0236813F4804F0CD01F4AD2F8883011
:101CA80023F04063A16B0B43C2F88830A36BB3F1F8
:101CB800006F27D0236813F4004F0CD0164AD2F8CF
:101CC800883023F04053E16B0B43C2F88830E36B54
:101CD800B3F1805F1BD0284603B0F0BDD36843F44E
:101CE8008013D360A2E7D36843F48013D360AEE7D0
:101CF800D36843F48013D360BAE7D36843F48013FE
:101D0800D360C6E7D36843F48013D360D2E7D368BF
:101D180043F48033D360DEE70010024000700040D7
:101D280010B4036A046A24F001040462846924F08C
:101D3800F00444EA021223F00A030B4382610362AF
:101D48005DF8044B704710B4036A23F01003036274
:101D58008469036A24F4704444EA023223F0A0033D
:101D680043EA0113826103625DF8044B704783689C
:101D780023F4401323F07003194341F007018160F5
:101D88007047000003682C4A90420ED0B0F1804F93
:101D98000BD0A2F59432904207D002F580629042AF
:101DA80003D002F59632904203D123F070034A68BB
:101DB8001343214A90421AD0B0F1804F17D0A2F5B0
:101DC8009432904213D002F5806290420FD002F50F
:101DD800963290420BD002F54062904207D002F54D
:101DE8008062904203D002F58062904203D123F4CE
:101DF8004073CA68134323F080034A69134303609E
:101E08008B68C3620B6883620B4B98420FD003F553
:101E1800006398420BD003F54063984207D003F55E
:101E28008063984203D003F58063984201D10B691F
:101E38000363012343617047002C014058B310B578
:101E4800044690F83D300BB3022384F83D30211D41
:101E58002068FFF797FF012384F8483084F83E3064
:101E680084F83F3084F8403084F8413084F84230B8
:101E780084F8433084F8443084F8453084F8463098
:101E880084F8473084F83D30002010BD80F83C309D
:101E9800FEF7EAFCD8E70120704710B4846824F400
:101EA8007F4442EA03230B43234383605DF8044BDA
:101EB8007047000090F83C30012B74D010B50446F0
:101EC800012380F83C30022380F83D300268906896
:101ED800364B034093600B68602B50D01DD9344AB1
:101EE80093422ED035D8B3F5005F3CD0B3F1101F24
:101EF80027D0702B0AD1CB684A6889682068FFF719
:101F0800CCFF2268936843F077039360012384F839
:101F18003D30002084F83C0010BD202B11D00DD995
:101F2800402B36D0502B11D1CA6849682068FFF77A
:101F3800F7FE50212068FFF71AFFE7E70BB1102BD7
:101F4800E4D119462068FFF712FFDFE7302BDDD117
:101F5800F7E7184A9342F4D030329342F1D0403A2E
:101F68009342D3D1EDE7CB684A6889682068FFF7C8
:101F780094FF2268936843F480439360C6E7CA6875
:101F880049682068FFF7DFFE60212068FFF7EFFE51
:101F9800BCE7CA6849682068FFF7C2FE402120688C
:101FA800FFF7E5FEB2E70220704700BF8800CEFFCA
:101FB800200010004000100090F83C30012B40D069
:101FC80030B4012380F83C30022380F83D300268A9
:101FD800536895681C4CA24203D004F50064A242E1
:101FE80003D123F470034C68234323F0007323F0D8
:101FF80070030C68234353600368134A934212D05A
:10200800B3F1804F0FD0A2F5943293420BD002F572
:102018008062934207D002F59632934203D002F5CC
:102028004062934204D125F080058A6815439D607B
:10203800012380F83D30002380F83C30184630BC3E
:1020480070470220704700BF002C014090F83C30D8
:10205800012B55D010B4012380F83C30CB6823F411
:1020680040738A68134323F480634A68134323F454
:1020780000630A68134323F480530A69134323F463
:1020880000534A69134323F480430A6B134323F430
:1020980070238A6943EA024302681A4CA24203D0B9
:1020A80004F50064A24203D123F08053CC69234392
:1020B800144CA2420BD004F50064A24207D053642A
:1020C800002380F83C3018465DF8044B704723F431
:1020D80070038C6A43EA045323F080730C6A234329
:1020E80023F000734C6A2343064CA24203D004F544
:1020F8000064A242E3D123F00053C96A0B43DEE730
:1021080002207047002C01400268136823F4907382
:1021180013600268936823F0805323F001039360EF
:102128002023C0F884300023C3667047D0F8843079
:10213800202B7FD100297FD0002A7FD090F87C30D7
:10214800012B7DD0012380F87C308165A0F85C20CC
:10215800A0F85E200023C3668368B3F5805F06D0CD
:10216800A3B9036973B9FF23A0F8603014E00369C9
:1021780023B940F2FF13A0F860300DE0FF23A0F868
:10218800603009E07F23A0F8603005E0B3F1805F9C
:1021980021D00023A0F860300023C0F88830222323
:1021A800C0F8843001688B6843F001038B60436E8C
:1021B800B3F1005F19D08368B3F5805F34D0214B49
:1021C800C366002380F87C3001680A6842F4907284
:1021D8000A601846704703691BB97F23A0F860306E
:1021E800DAE73F23A0F86030D6E7B0F868309342CA
:1021F800E1D88368B3F5805F10D0134BC366002322
:1022080080F87C3001680A6842F480720A600168CC
:102218008A6842F080528A60184670470369002B2A
:10222800EBD10A4BC366EAE70369002BC7D1084B19
:10223800C366C6E702207047012070470120704737
:10224800022070477B22000845230008F12300087C
:10225800E1220008704708B501680A6822F04002C8
:102268000A602022C0F8802000220267FFF7F2FFF0
:1022780008BD08B5B0F86030D0F88420222A05D00F
:102288000268936943F00803936108BD0268516AC4
:10229800DBB2826D0B401370836D01338365B0F838
:1022A8005E30013B9BB2A0F85E30B0F85E309BB266
:1022B800002BEAD10268136823F490731360026854
:1022C800936823F0010393602023C0F8843000232F
:1022D800C366FEF739FCD8E708B5B0F86020D0F837
:1022E8008430222B05D00268936943F00803936178
:1022F80008BD03685B6A816D13400B80836D0233F0
:102308008365B0F85E30013B9BB2A0F85E30B0F850
:102318005E309BB2002BEBD10268136823F49073F4
:1023280013600268936823F0010393602023C0F8C8
:1023380084300023C366FEF707FCD9E770B5B0F810
:102348006050D0F88430222B05D00268936943F09E
:102358000803936170BD0446B0F8686001E0013E6F
:10236800B6B246B32368596AEBB2A26D0B4013703C
:10237800A36D0133A365B4F85E30013B9BB2A4F8AA
:102388005E30B4F85E309BB2002BE8D12268136847
:1023980023F4807313602268936823F0805323F03A
:1023A800010393602023C4F884300023E3662046A9
:1023B800FEF7CAFBD3E7B4F85E309BB2002BC9D056
:1023C800B4F868209A42C5D92268936823F08053EC
:1023D8009360044BE3662268136843F0200313609C
:1023E800B8E700BF7B22000870B5B0F86060D0F88D
:1023F8008430222B05D00268936943F00803936167
:1024080070BD0446B0F8685001E0013DADB23DB37F
:1024180023685B6AA26D33401380A36D0233A36502
:10242800B4F85E30013B9BB2A4F85E30B4F85E307D
:102438009BB2002BE9D12268136823F480731360E0
:102448002268936823F0805323F0010393602023CC
:10245800C4F884300023E3662046FEF775FBD4E712
:10246800B4F85E309BB2002BCAD0B4F868209A4208
:10247800C6D92268936823F080539360034BE366C0
:102488002268136843F020031360B9E7E1220008CB
:102498007047000070B504460168CB690D6888680C
:1024A80040F60F021A400DD113F0200F0AD015F094
:1024B800200F02D110F0805F04D0E36E0BB12046EC
:1024C800984770BD002A00F09580684A024003D101
:1024D800674E354200F08E8013F0010F09D015F4D5
:1024E800807F06D001260E62D4F888103143C4F8E4
:1024F800881013F0020F0BD010F0010F08D02168DC
:1025080002260E62D4F8881041F00401C4F888103D
:1025180013F0040F0BD010F0010F08D02168042627
:102528000E62D4F8881041F00201C4F8881013F044
:10253800080F0BD015F0200F00D13AB122680821FE
:102548001162D4F888200A43C4F8882013F4006F75
:102558000CD015F0806F09D022684FF40061116229
:10256800D4F8882042F02002C4F88820D4F88820C3
:10257800002AA6D013F0200F09D015F0200F02D1A1
:1025880010F0805F03D0E36E0BB120469847D4F873
:10259800882023689B6813F0400F02D112F0280F9F
:1025A80021D02046FFF7B0FD23689A6812F0400F4B
:1025B80015D09A6822F040029A60A36F5BB12D4A49
:1025C8009A63A06FFEF728FC00283FF47AAFA06F4B
:1025D800836B984775E72046FFF75AFF71E7204657
:1025E800FFF756FF6DE72046FFF752FF0023C4F8B8
:1025F800883066E713F4801F02D010F4800F0FD1E3
:1026080013F0800F13D015F0800F02D110F4000FD3
:102618000DD0236F002B3FF454AF2046984750E766
:102628004FF480130B62204600F032FB49E713F0A9
:10263800400F02D015F0400F10D113F4000F02D054
:1026480015F0804F0ED113F0807F3FF43AAF002D84
:10265800BFF637AF204600F01CFB32E72046FFF7F5
:10266800FAFD2EE7204600F015FB2AE701000010CE
:10267800200100048126000808B5806A0023A0F81C
:102688005E30A0F85630FFF703FF08BD2DE9F84388
:102698000446016883680269134342691343C269A7
:1026A8001343426E134308689E4A02401A430A6065
:1026B8002268536823F44053E1680B435360A169CF
:1026C8002268994B9A4201D0236A1943936823F0F0
:1026D8006E4323F430630B4393602268D36A23F07C
:1026E8000F03616A0B43D3622368904A934223D055
:1026F8008F4A934234D08F4A93424AD08E4A9342AB
:102708005DD0894A934270D0102287498B4200F0ED
:102718008F80E369B3F5004F00F0CF80082A00F2FC
:102728004E81DFE812F01301350111014C01380127
:102738004C014C014C013B0102F55842D2F888206B
:1027480002F00302032A09D8DFE802F0020468064F
:102758000122DAE70422D8E70822D6E71022D4E7D4
:1027680002F5E632D2F8882002F00C020C2A0ED8C4
:10277800DFE802F0070D0D0D090D0D0D560D0D0DBD
:102788000B000022C1E70422BFE70822BDE71022A0
:10279800BBE702F5E432D2F8882002F03002102AB2
:1027A80009D005D9202A3DD0302A06D10822ACE725
:1027B8001AB90022A9E70422A7E71022A5E702F523
:1027C800E232D2F8882002F0C002402A09D005D9A6
:1027D800802A29D0C02A06D1082296E71AB90022F1
:1027E80093E7042291E710228FE702F5C832D2F866
:1027F800882002F44062B2F5806F0BD007D9B2F599
:10280800006F13D0B2F5406F06D108227DE71AB9E0
:1028180000227AE7042278E7102276E7022274E79A
:10282800022272E7022270E702226EE702226CE7B8
:10283800082A00F2B680DFE802F008B410B40DB43C
:10284800B4B405004FF4004008E0FFF7D3F828B906
:10285800002093E0FEF786FFF9E73848626A384BB4
:1028680033F81220B0FBF2F3656805EB4501994295
:1028780000F29980B3EB053F00F297804FF0000813
:1028880092B200234146FDF7C3FC0F0247EA1067E6
:10289800060268082A46434616EB000847F1000975
:1028A80040464946FDF7B4FCA0F54072254B9A42D4
:1028B8007DD82368D860002060E0082A79D8DFE84E
:1028C80002F0072705782A7878782D001B4803E05E
:1028D800FFF790F800286ED0626A194B33F812306F
:1028E800B0FBF3F06268530803EB4003B3FBF2F369
:1028F8009BB2A3F110014FF6EF7291425DD823F01D
:102908000F02C3F3420313432268D360002035E06B
:10291800FFF782F8DEE7FEF725FFDBE74FF400401C
:10292800DAE700BFF369FFCF0080004000380140BC
:102938000044004000480040004C00400024F400DF
:102948004C2E0008FFFC0F00204802E0FFF752F869
:10295800B8B3626A1E4B33F81230B0FBF3F0636809
:1029680000EB5300B0FBF3F080B2A0F110024FF679
:10297800EF739A4227D82368D86000200123A4F86F
:102988006A30A4F868300023E3662367BDE8F8835B
:10299800FFF742F8DCE7FEF7E5FED9E74FF4004021
:1029A800D7E70120EAE70120E8E70120E6E7012070
:1029B800E4E70120E2E70020E0E70120DEE701206C
:1029C800DCE70020DAE70120D8E700BF0024F400A4
:1029D8004C2E0008836A13F0010F06D00268536872
:1029E80023F40033C16A0B435360836A13F0020F68
:1029F80006D00268536823F48033016B0B4353609D
:102A0800836A13F0040F06D00268536823F4802306
:102A1800416B0B435360836A13F0080F06D00268BA
:102A2800536823F40043816B0B435360836A13F0AC
:102A3800100F06D00268936823F48053C16B0B43D0
:102A48009360836A13F0200F06D00268936823F41A
:102A58000053016C0B439360836A13F0400F0AD054
:102A68000268536823F48013416C0B435360436C32
:102A7800B3F5801F0BD0836A13F0800F06D002686D
:102A8800536823F40023C16C0B43536070470268FA
:102A9800536823F4C003816C0B435360EBE72DE9C3
:102AA800F04104460F4616469846069D2368DB69A2
:102AB80037EA03030CBF01230023B3423FD1B5F12A
:102AC800FF3FF3D0FEF792F8A0EB0800A84222D807
:102AD8000DB323681A6812F0040FE7D0DA6912F40C
:102AE800006FE3D04FF400621A622268136823F47F
:102AF800D07313602268936823F001039360202346
:102B0800C4F88030C4F88430C4F88830002384F8CE
:102B18007C30032014E02268136823F4D073136018
:102B28002268936823F0010393602023C4F880305F
:102B3800C4F88430002384F87C30032000E00020AF
:102B4800BDE8F08130B583B004460023C0F8883072
:102B5800FEF74CF8054623681B6813F0080F0ED1E2
:102B680023681B6813F0040F17D12023C4F88030A2
:102B7800C4F88430002084F87C0003B030BD6FF0C6
:102B88007E430093034600224FF400112046FFF7CE
:102B980086FF0028E4D00320EFE76FF07E43009320
:102BA8002B4600224FF480012046FFF778FF0028CB
:102BB800DBD00320E1E778B310B50446D0F88030C5
:102BC8000BB32423C4F880302268136823F0010370
:102BD80013602046FFF75AFD012813D0A36ABBB93A
:102BE8002268536823F4904353602268936823F063
:102BF8002A0393602268136843F001031360204698
:102C0800FFF7A0FF10BD80F87C30FDF7A9FED8E7DC
:102C18002046FFF7DFFEE3E70120704710B485B0D8
:102C280002461A4B93E8030004AC04E903006C461F
:102C3800083393E8030084E80300536EFBB111687E
:102C48008B68C3F34263886804A901EB507010F8DD
:102C5800081CC90010F8100C91FBF0F1A2F86A10DA
:102C680004A90B4413F8081CC90013F8103C91FB85
:102C7800F3F3A2F8683005B05DF8044B7047012300
:102C8800A2F86A30A2F86830F5E700BF642E0008A1
:102C980070477047704790F87C30012B18D001239B
:102CA80080F87C302423C0F8803003681A681968DB
:102CB80021F00101196022F00052002343660168E7
:102CC8000A602022C0F8802080F87C3018467047BF
:102CD8000220704738B590F87C30012B1DD004468F
:102CE800012380F87C302423C0F8803003681D68F5
:102CF8001A6822F001021A600268936823F06043A0
:102D080019439160FFF78AFF23681D602023C4F8E8
:102D18008030002084F87C0038BD0220FCE738B5FC
:102D280090F87C30012B1DD00446012380F87C30BC
:102D38002423C0F8803003681D681A6822F0010255
:102D48001A600268936823F0606319439160FFF783
:102D580065FF23681D602023C4F88030002084F8B4
:102D68007C0038BD0220FCE70D4885460D480E4919
:102D78000E4A002302E0D458C4500433C4188C42CD
:102D8800F9D30B4A0B4C002301E013600432A24232
:102D9800FBD3FDF711FD00F011F8FDF7A1FCFEE7EC
:102DA80000800020000000200C000020842E000875
:102DB8000C00002044030020FEE7000070B50D4E13
:102DC8000D4CA41BA4100025A54209D10B4E0C4C98
:102DD80000F020F8A41BA4100025A54205D170BD61
:102DE80056F8253098470135EEE756F825309847CC
:102DF8000135F2E77C2E00087C2E00087C2E0008A6
:102E0800802E000802440346934200D1704703F81D
:102E1800011BF9E7F8B500BFF8BC08BC9E4670472F
:0C2E2800F8B500BFF8BC08BC9E4670471F
:102E34000000000000000000010203040607080966
:102E44000000000001020304010002000400060067
:102E540008000A000C00100020004000800000015F
:102E64000101010307010000080402040801010133
:082E7400D4D3FF7F0100000030
:042E7C00FD0100084C
:042E8000D90100086C
:0C2E84000024F400010000001000000019
:0400000508002D7151
:00000001FF
